{
  "contractName": "CoinFlip",
  "abi": [
    {
      "inputs": [],
      "payable": false,
      "stateMutability": "nonpayable",
      "type": "constructor"
    },
    {
      "anonymous": false,
      "inputs": [
        {
          "indexed": false,
          "internalType": "string",
          "name": "queryRequested",
          "type": "string"
        }
      ],
      "name": "LogNewProvableQuery",
      "type": "event"
    },
    {
      "anonymous": false,
      "inputs": [
        {
          "indexed": false,
          "internalType": "bool",
          "name": "done",
          "type": "bool"
        }
      ],
      "name": "balanceUpdated",
      "type": "event"
    },
    {
      "anonymous": false,
      "inputs": [
        {
          "indexed": false,
          "internalType": "string",
          "name": "result",
          "type": "string"
        }
      ],
      "name": "flipResult",
      "type": "event"
    },
    {
      "anonymous": false,
      "inputs": [
        {
          "indexed": false,
          "internalType": "uint256",
          "name": "randomNumber",
          "type": "uint256"
        }
      ],
      "name": "generatedRandomNumber",
      "type": "event"
    },
    {
      "constant": false,
      "inputs": [],
      "name": "killContract",
      "outputs": [],
      "payable": false,
      "stateMutability": "nonpayable",
      "type": "function"
    },
    {
      "constant": true,
      "inputs": [
        {
          "internalType": "bytes32",
          "name": "",
          "type": "bytes32"
        }
      ],
      "name": "player",
      "outputs": [
        {
          "internalType": "bytes32",
          "name": "id",
          "type": "bytes32"
        },
        {
          "internalType": "address",
          "name": "playerAddress",
          "type": "address"
        }
      ],
      "payable": false,
      "stateMutability": "view",
      "type": "function"
    },
    {
      "constant": true,
      "inputs": [
        {
          "internalType": "address",
          "name": "",
          "type": "address"
        }
      ],
      "name": "playerByAddress",
      "outputs": [
        {
          "internalType": "address payable",
          "name": "playerAddress",
          "type": "address"
        },
        {
          "internalType": "uint256",
          "name": "customerBalance",
          "type": "uint256"
        },
        {
          "internalType": "uint256",
          "name": "choice",
          "type": "uint256"
        },
        {
          "internalType": "uint256",
          "name": "bet",
          "type": "uint256"
        },
        {
          "internalType": "bool",
          "name": "inGame",
          "type": "bool"
        }
      ],
      "payable": false,
      "stateMutability": "view",
      "type": "function"
    },
    {
      "constant": false,
      "inputs": [
        {
          "internalType": "uint256",
          "name": "decision",
          "type": "uint256"
        }
      ],
      "name": "flip",
      "outputs": [],
      "payable": true,
      "stateMutability": "payable",
      "type": "function"
    },
    {
      "constant": false,
      "inputs": [],
      "name": "update",
      "outputs": [],
      "payable": true,
      "stateMutability": "payable",
      "type": "function"
    },
    {
      "constant": false,
      "inputs": [
        {
          "internalType": "bytes32",
          "name": "_myid",
          "type": "bytes32"
        },
        {
          "internalType": "string",
          "name": "_result",
          "type": "string"
        }
      ],
      "name": "__callback",
      "outputs": [],
      "payable": false,
      "stateMutability": "nonpayable",
      "type": "function"
    },
    {
      "constant": false,
      "inputs": [
        {
          "internalType": "bytes32",
          "name": "_queryId",
          "type": "bytes32"
        },
        {
          "internalType": "string",
          "name": "_result",
          "type": "string"
        },
        {
          "internalType": "bytes",
          "name": "_proof",
          "type": "bytes"
        }
      ],
      "name": "__callback",
      "outputs": [],
      "payable": false,
      "stateMutability": "nonpayable",
      "type": "function"
    },
    {
      "constant": false,
      "inputs": [
        {
          "internalType": "uint256",
          "name": "randomNumber",
          "type": "uint256"
        },
        {
          "internalType": "bytes32",
          "name": "_queryId",
          "type": "bytes32"
        }
      ],
      "name": "verifyResult",
      "outputs": [],
      "payable": false,
      "stateMutability": "nonpayable",
      "type": "function"
    },
    {
      "constant": false,
      "inputs": [],
      "name": "withdrawalAll",
      "outputs": [],
      "payable": false,
      "stateMutability": "nonpayable",
      "type": "function"
    },
    {
      "constant": false,
      "inputs": [],
      "name": "withdrawalCustomerFunds",
      "outputs": [],
      "payable": true,
      "stateMutability": "payable",
      "type": "function"
    },
    {
      "constant": true,
      "inputs": [],
      "name": "getCustomerBalance",
      "outputs": [
        {
          "internalType": "uint256",
          "name": "",
          "type": "uint256"
        }
      ],
      "payable": false,
      "stateMutability": "view",
      "type": "function"
    },
    {
      "constant": true,
      "inputs": [],
      "name": "getContractBalance",
      "outputs": [
        {
          "internalType": "uint256",
          "name": "",
          "type": "uint256"
        }
      ],
      "payable": false,
      "stateMutability": "view",
      "type": "function"
    },
    {
      "constant": true,
      "inputs": [],
      "name": "getMainContractBalance",
      "outputs": [
        {
          "internalType": "uint256",
          "name": "",
          "type": "uint256"
        }
      ],
      "payable": false,
      "stateMutability": "view",
      "type": "function"
    },
    {
      "constant": false,
      "inputs": [],
      "name": "setContractBalance",
      "outputs": [],
      "payable": true,
      "stateMutability": "payable",
      "type": "function"
    }
  ],
  "bytecode": "0x60806040523480156200001157600080fd5b50336000806101000a81548173ffffffffffffffffffffffffffffffffffffffff021916908373ffffffffffffffffffffffffffffffffffffffff16021790555062000067603060f81b6200006d60201b60201c565b62000a91565b600073ffffffffffffffffffffffffffffffffffffffff16600260009054906101000a900473ffffffffffffffffffffffffffffffffffffffff1673ffffffffffffffffffffffffffffffffffffffff161480620000fd57506000620000fb600260009054906101000a900473ffffffffffffffffffffffffffffffffffffffff16620003d360201b60201c565b145b156200011757620001156000620003de60201b60201c565b505b600260009054906101000a900473ffffffffffffffffffffffffffffffffffffffff1673ffffffffffffffffffffffffffffffffffffffff166338cc48316040518163ffffffff1660e01b8152600401602060405180830381600087803b1580156200018257600080fd5b505af115801562000197573d6000803e3d6000fd5b505050506040513d6020811015620001ae57600080fd5b810190808051906020019092919050505073ffffffffffffffffffffffffffffffffffffffff16600160009054906101000a900473ffffffffffffffffffffffffffffffffffffffff1673ffffffffffffffffffffffffffffffffffffffff1614620002fd57600260009054906101000a900473ffffffffffffffffffffffffffffffffffffffff1673ffffffffffffffffffffffffffffffffffffffff166338cc48316040518163ffffffff1660e01b8152600401602060405180830381600087803b1580156200027f57600080fd5b505af115801562000294573d6000803e3d6000fd5b505050506040513d6020811015620002ab57600080fd5b8101908080519060200190929190505050600160006101000a81548173ffffffffffffffffffffffffffffffffffffffff021916908373ffffffffffffffffffffffffffffffffffffffff1602179055505b600160009054906101000a900473ffffffffffffffffffffffffffffffffffffffff1673ffffffffffffffffffffffffffffffffffffffff1663688dcfd7826040518263ffffffff1660e01b815260040180827effffffffffffffffffffffffffffffffffffffffffffffffffffffffffffff19167effffffffffffffffffffffffffffffffffffffffffffffffffffffffffffff19168152602001915050600060405180830381600087803b158015620003b757600080fd5b505af1158015620003cc573d6000803e3d6000fd5b5050505050565b6000813b9050919050565b6000620003f0620003f760201b60201c565b9050919050565b6000806200041f731d3b2638a7cc9f2cb3d298a3da7a90b67e5506ed620003d360201b60201c565b1115620004cb57731d3b2638a7cc9f2cb3d298a3da7a90b67e5506ed600260006101000a81548173ffffffffffffffffffffffffffffffffffffffff021916908373ffffffffffffffffffffffffffffffffffffffff160217905550620004c16040518060400160405280600b81526020017f6574685f6d61696e6e6574000000000000000000000000000000000000000000815250620009c660201b60201c565b60019050620009c3565b6000620004f273c03a2615d5efaf5f49f60b7bb6583eaec212fdf1620003d360201b60201c565b11156200059e5773c03a2615d5efaf5f49f60b7bb6583eaec212fdf1600260006101000a81548173ffffffffffffffffffffffffffffffffffffffff021916908373ffffffffffffffffffffffffffffffffffffffff160217905550620005946040518060400160405280600c81526020017f6574685f726f707374656e330000000000000000000000000000000000000000815250620009c660201b60201c565b60019050620009c3565b6000620005c573b7a07bcf2ba2f2703b24c0691b5278999c59ac7e620003d360201b60201c565b1115620006715773b7a07bcf2ba2f2703b24c0691b5278999c59ac7e600260006101000a81548173ffffffffffffffffffffffffffffffffffffffff021916908373ffffffffffffffffffffffffffffffffffffffff160217905550620006676040518060400160405280600981526020017f6574685f6b6f76616e0000000000000000000000000000000000000000000000815250620009c660201b60201c565b60019050620009c3565b60006200069873146500cfd35b22e4a392fe0adc06de1a1368ed48620003d360201b60201c565b1115620007445773146500cfd35b22e4a392fe0adc06de1a1368ed48600260006101000a81548173ffffffffffffffffffffffffffffffffffffffff021916908373ffffffffffffffffffffffffffffffffffffffff1602179055506200073a6040518060400160405280600b81526020017f6574685f72696e6b656279000000000000000000000000000000000000000000815250620009c660201b60201c565b60019050620009c3565b60006200076b73a2998efd205fb9d4b4963afb70778d6354ad3a41620003d360201b60201c565b1115620008175773a2998efd205fb9d4b4963afb70778d6354ad3a41600260006101000a81548173ffffffffffffffffffffffffffffffffffffffff021916908373ffffffffffffffffffffffffffffffffffffffff1602179055506200080d6040518060400160405280600a81526020017f6574685f676f65726c6900000000000000000000000000000000000000000000815250620009c660201b60201c565b60019050620009c3565b60006200083e736f485c8bf6fc43ea212e93bbf8ce046c7f1cb475620003d360201b60201c565b1115620008a457736f485c8bf6fc43ea212e93bbf8ce046c7f1cb475600260006101000a81548173ffffffffffffffffffffffffffffffffffffffff021916908373ffffffffffffffffffffffffffffffffffffffff16021790555060019050620009c3565b6000620008cb7320e12a1f859b3feae5fb2a0a32c18f5a65555bbf620003d360201b60201c565b111562000931577320e12a1f859b3feae5fb2a0a32c18f5a65555bbf600260006101000a81548173ffffffffffffffffffffffffffffffffffffffff021916908373ffffffffffffffffffffffffffffffffffffffff16021790555060019050620009c3565b6000620009587351efaf4c8b3c9afbd5ab9f4bbc82784ab6ef8faa620003d360201b60201c565b1115620009be577351efaf4c8b3c9afbd5ab9f4bbc82784ab6ef8faa600260006101000a81548173ffffffffffffffffffffffffffffffffffffffff021916908373ffffffffffffffffffffffffffffffffffffffff16021790555060019050620009c3565b600090505b90565b8060039080519060200190620009de929190620009e2565b5050565b828054600181600116156101000203166002900490600052602060002090601f016020900481019282601f1062000a2557805160ff191683800117855562000a56565b8280016001018555821562000a56579182015b8281111562000a5557825182559160200191906001019062000a38565b5b50905062000a65919062000a69565b5090565b62000a8e91905b8082111562000a8a57600081600090555060010162000a70565b5090565b90565b6143c98062000aa16000396000f3fe6080604052600436106100dd5760003560e01c806355ee0b2b1161007f578063a853409a11610059578063a853409a14610493578063c8e4acef146104be578063e5799a8c1461056f578063f44b79b314610579576100dd565b806355ee0b2b146104545780636f9fb98a1461045e578063a2e6204514610489576100dd565b806330b57b1e116100bb57806330b57b1e146101f95780633258dd8d1461027b57806338bbfa50146102a65780634b54c2a21461040f576100dd565b80631c02708d146100e2578063221e885d146100f957806327dc297e14610127575b600080fd5b3480156100ee57600080fd5b506100f7610590565b005b6101256004803603602081101561010f57600080fd5b810190808035906020019092919050505061066f565b005b34801561013357600080fd5b506101f76004803603604081101561014a57600080fd5b81019080803590602001909291908035906020019064010000000081111561017157600080fd5b82018360208201111561018357600080fd5b803590602001918460018302840111640100000000831117156101a557600080fd5b91908080601f016020809104026020016040519081016040528093929190818152602001838380828437600081840152601f19601f8201169050808301925050505050505091929192905050506108ee565b005b34801561020557600080fd5b506102326004803603602081101561021c57600080fd5b8101908080359060200190929190505050610931565b604051808381526020018273ffffffffffffffffffffffffffffffffffffffff1673ffffffffffffffffffffffffffffffffffffffff1681526020019250505060405180910390f35b34801561028757600080fd5b50610290610975565b6040518082815260200191505060405180910390f35b3480156102b257600080fd5b5061040d600480360360608110156102c957600080fd5b8101908080359060200190929190803590602001906401000000008111156102f057600080fd5b82018360208201111561030257600080fd5b8035906020019184600183028401116401000000008311171561032457600080fd5b91908080601f016020809104026020016040519081016040528093929190818152602001838380828437600081840152601f19601f8201169050808301925050505050505091929192908035906020019064010000000081111561038757600080fd5b82018360208201111561039957600080fd5b803590602001918460018302840111640100000000831117156103bb57600080fd5b91908080601f016020809104026020016040519081016040528093929190818152602001838380828437600081840152601f19601f82011690508083019250505050505050919291929050505061097f565b005b34801561041b57600080fd5b506104526004803603604081101561043257600080fd5b810190808035906020019092919080359060200190929190505050610aa3565b005b61045c610eae565b005b34801561046a57600080fd5b50610473610efc565b6040518082815260200191505060405180910390f35b610491610f1b565b005b34801561049f57600080fd5b506104a8611075565b6040518082815260200191505060405180910390f35b3480156104ca57600080fd5b5061050d600480360360208110156104e157600080fd5b81019080803573ffffffffffffffffffffffffffffffffffffffff1690602001909291905050506110bf565b604051808673ffffffffffffffffffffffffffffffffffffffff1673ffffffffffffffffffffffffffffffffffffffff168152602001858152602001848152602001838152602001821515151581526020019550505050505060405180910390f35b610577611122565b005b34801561058557600080fd5b5061058e611296565b005b6000809054906101000a900473ffffffffffffffffffffffffffffffffffffffff1673ffffffffffffffffffffffffffffffffffffffff163373ffffffffffffffffffffffffffffffffffffffff1614610635576040517f08c379a000000000000000000000000000000000000000000000000000000000815260040180806020018281038252602881526020018061436d6028913960400191505060405180910390fd5b6000809054906101000a900473ffffffffffffffffffffffffffffffffffffffff1673ffffffffffffffffffffffffffffffffffffffff16ff5b6003600654023411156106cd576040517f08c379a00000000000000000000000000000000000000000000000000000000081526004018080602001828103825260348152602001806142c46034913960400191505060405180910390fd5b60001515600860003373ffffffffffffffffffffffffffffffffffffffff1673ffffffffffffffffffffffffffffffffffffffff16815260200190815260200160002060040160009054906101000a900460ff16151514610779576040517f08c379a00000000000000000000000000000000000000000000000000000000081526004018080602001828103825260358152602001806143386035913960400191505060405180910390fd5b33600860003373ffffffffffffffffffffffffffffffffffffffff1673ffffffffffffffffffffffffffffffffffffffff16815260200190815260200160002060000160006101000a81548173ffffffffffffffffffffffffffffffffffffffff021916908373ffffffffffffffffffffffffffffffffffffffff16021790555080600860003373ffffffffffffffffffffffffffffffffffffffff1673ffffffffffffffffffffffffffffffffffffffff1681526020019081526020016000206002018190555034600860003373ffffffffffffffffffffffffffffffffffffffff1673ffffffffffffffffffffffffffffffffffffffff168152602001908152602001600020600301819055506001600860003373ffffffffffffffffffffffffffffffffffffffff1673ffffffffffffffffffffffffffffffffffffffff16815260200190815260200160002060040160006101000a81548160ff0219169083151502179055506108eb610f1b565b50565b61092d828260006040519080825280601f01601f1916602001820160405280156109275781602001600182028038833980820191505090505b5061097f565b5050565b60076020528060005260406000206000915090508060000154908060010160009054906101000a900473ffffffffffffffffffffffffffffffffffffffff16905082565b6000600654905090565b600061098c8484846113a4565b60ff161461099957610a9e565b6109a16114d4565b73ffffffffffffffffffffffffffffffffffffffff163373ffffffffffffffffffffffffffffffffffffffff16146109d857600080fd5b60006002836040516020018082805190602001908083835b60208310610a1357805182526020820191506020810190506020830392506109f0565b6001836020036101000a0380198251168184511680821785525050505050509050019150506040516020818303038152906040528051906020012060001c81610a5857fe5b069050610a658185610aa3565b7fc13d60fe9dffdb6908d2d446cd18134373a51db0738ee04f296eeb9128121cbc816040518082815260200191505060405180910390a1505b505050565b600860006007600084815260200190815260200160002060010160009054906101000a900473ffffffffffffffffffffffffffffffffffffffff1673ffffffffffffffffffffffffffffffffffffffff1673ffffffffffffffffffffffffffffffffffffffff16815260200190815260200160002060020154821415610d1657600860006007600084815260200190815260200160002060010160009054906101000a900473ffffffffffffffffffffffffffffffffffffffff1673ffffffffffffffffffffffffffffffffffffffff1673ffffffffffffffffffffffffffffffffffffffff16815260200190815260200160002060030154600860006007600085815260200190815260200160002060010160009054906101000a900473ffffffffffffffffffffffffffffffffffffffff1673ffffffffffffffffffffffffffffffffffffffff1673ffffffffffffffffffffffffffffffffffffffff16815260200190815260200160002060010160008282540192505081905550600860006007600084815260200190815260200160002060010160009054906101000a900473ffffffffffffffffffffffffffffffffffffffff1673ffffffffffffffffffffffffffffffffffffffff1673ffffffffffffffffffffffffffffffffffffffff168152602001908152602001600020600301546006600082825403925050819055507f8a29594c7999d92a07a2010ce9bad6e2248fe23beb9cbf315e702771e73d28276040518080602001828103825260038152602001807f776f6e000000000000000000000000000000000000000000000000000000000081525060200191505060405180910390a1610e07565b600860006007600084815260200190815260200160002060010160009054906101000a900473ffffffffffffffffffffffffffffffffffffffff1673ffffffffffffffffffffffffffffffffffffffff1673ffffffffffffffffffffffffffffffffffffffff168152602001908152602001600020600301546006600082825401925050819055507f8a29594c7999d92a07a2010ce9bad6e2248fe23beb9cbf315e702771e73d28276040518080602001828103825260048152602001807f6c6f73740000000000000000000000000000000000000000000000000000000081525060200191505060405180910390a15b6000600860003373ffffffffffffffffffffffffffffffffffffffff1673ffffffffffffffffffffffffffffffffffffffff168152602001908152602001600020600301819055506000600860003373ffffffffffffffffffffffffffffffffffffffff1673ffffffffffffffffffffffffffffffffffffffff16815260200190815260200160002060040160006101000a81548160ff0219169083151502179055505050565b346006600082825401925050819055507f1254048a43a2283f2900f8d5ebbf165a6cc889e8054ffee6bf1b942a429c7e636001604051808215151515815260200191505060405180910390a1565b60003073ffffffffffffffffffffffffffffffffffffffff1631905090565b662386f26fc10000341015610f98576040517f08c379a00000000000000000000000000000000000000000000000000000000081526004018080602001828103825260148152602001807f4d696e2062657420697320302e3120457468657200000000000000000000000081525060200191505060405180910390fd5b6000809050600062030d4090506000610fb3836001846117f4565b9050806007600083815260200190815260200160002060000181905550336007600083815260200190815260200160002060010160006101000a81548173ffffffffffffffffffffffffffffffffffffffff021916908373ffffffffffffffffffffffffffffffffffffffff1602179055507fc4dc360d0a9c0677a3379ae0a3d81e887f761e65fdf3d7e00859d1bcd3c473896040518080602001828103825260318152602001806142936031913960400191505060405180910390a1505050565b6000600860003373ffffffffffffffffffffffffffffffffffffffff1673ffffffffffffffffffffffffffffffffffffffff16815260200190815260200160002060010154905090565b60086020528060005260406000206000915090508060000160009054906101000a900473ffffffffffffffffffffffffffffffffffffffff16908060010154908060020154908060030154908060040160009054906101000a900460ff16905085565b600860003373ffffffffffffffffffffffffffffffffffffffff1673ffffffffffffffffffffffffffffffffffffffff16815260200190815260200160002060000160009054906101000a900473ffffffffffffffffffffffffffffffffffffffff1673ffffffffffffffffffffffffffffffffffffffff166108fc6002600860003373ffffffffffffffffffffffffffffffffffffffff1673ffffffffffffffffffffffffffffffffffffffff16815260200190815260200160002060010154029081150290604051600060405180830381858888f1935050505015801561120f573d6000803e3d6000fd5b506000600860003373ffffffffffffffffffffffffffffffffffffffff1673ffffffffffffffffffffffffffffffffffffffff168152602001908152602001600020600101819055507f1254048a43a2283f2900f8d5ebbf165a6cc889e8054ffee6bf1b942a429c7e636001604051808215151515815260200191505060405180910390a1565b6000809054906101000a900473ffffffffffffffffffffffffffffffffffffffff1673ffffffffffffffffffffffffffffffffffffffff163373ffffffffffffffffffffffffffffffffffffffff161461133b576040517f08c379a000000000000000000000000000000000000000000000000000000000815260040180806020018281038252602881526020018061436d6028913960400191505060405180910390fd5b3373ffffffffffffffffffffffffffffffffffffffff166108fc61135d610efc565b9081150290604051600060405180830381858888f19350505050158015611388573d6000803e3d6000fd5b506000611393610efc565b1461139a57fe5b6113a2610590565b565b60007f4c00000000000000000000000000000000000000000000000000000000000000826000815181106113d457fe5b602001015160f81c60f81b7effffffffffffffffffffffffffffffffffffffffffffffffffffffffffffff191614158061146757507f50000000000000000000000000000000000000000000000000000000000000008260018151811061143757fe5b602001015160f81c60f81b7effffffffffffffffffffffffffffffffffffffffffffffffffffffffffffff191614155b806114935750600160ff168260028151811061147f57fe5b602001015160f81c60f81b60f81c60ff1614155b156114a157600190506114cd565b60006114b68386866114b1611d8f565b611e31565b9050806114c75760029150506114cd565b60009150505b9392505050565b60008073ffffffffffffffffffffffffffffffffffffffff16600260009054906101000a900473ffffffffffffffffffffffffffffffffffffffff1673ffffffffffffffffffffffffffffffffffffffff16148061155c5750600061155a600260009054906101000a900473ffffffffffffffffffffffffffffffffffffffff166124dc565b145b1561156d5761156b60006124e7565b505b600260009054906101000a900473ffffffffffffffffffffffffffffffffffffffff1673ffffffffffffffffffffffffffffffffffffffff166338cc48316040518163ffffffff1660e01b8152600401602060405180830381600087803b1580156115d757600080fd5b505af11580156115eb573d6000803e3d6000fd5b505050506040513d602081101561160157600080fd5b810190808051906020019092919050505073ffffffffffffffffffffffffffffffffffffffff16600160009054906101000a900473ffffffffffffffffffffffffffffffffffffffff1673ffffffffffffffffffffffffffffffffffffffff161461174c57600260009054906101000a900473ffffffffffffffffffffffffffffffffffffffff1673ffffffffffffffffffffffffffffffffffffffff166338cc48316040518163ffffffff1660e01b8152600401602060405180830381600087803b1580156116d057600080fd5b505af11580156116e4573d6000803e3d6000fd5b505050506040513d60208110156116fa57600080fd5b8101908080519060200190929190505050600160006101000a81548173ffffffffffffffffffffffffffffffffffffffff021916908373ffffffffffffffffffffffffffffffffffffffff1602179055505b600160009054906101000a900473ffffffffffffffffffffffffffffffffffffffff1673ffffffffffffffffffffffffffffffffffffffff1663c281d19e6040518163ffffffff1660e01b815260040160206040518083038186803b1580156117b457600080fd5b505afa1580156117c8573d6000803e3d6000fd5b505050506040513d60208110156117de57600080fd5b8101908080519060200190929190505050905090565b60008083118015611806575060208311155b61180f57600080fd5b600a84029350606060016040519080825280601f01601f19166020018201604052801561184b5781602001600182028038833980820191505090505b5090508360f81b8160008151811061185f57fe5b60200101907effffffffffffffffffffffffffffffffffffffffffffffffffffffffffffff1916908160001a905350606060206040519080825280601f01601f1916602001820160405280156118c45781602001600182028038833980820191505090505b509050606060206040519080825280601f01601f1916602001820160405280156118fd5781602001600182028038833980820191505090505b509050600061190a6124f8565b905060208352424118600143034018602084015260208252806020830152606060206040519080825280601f01601f19166020018201604052801561195e5781602001600182028038833980820191505090505b509050886020820152606060086040519080825280601f01601f19166020018201604052801561199d5781602001600182028038833980820191505090505b5090506119b08260186008846000612818565b506119b96141ac565b60405180608001604052808781526020018881526020018681526020018481525090506000611a1e6040518060400160405280600681526020017f72616e646f6d0000000000000000000000000000000000000000000000000000815250838c612877565b9050606060086040519080825280601f01601f191660200182016040528015611a565781602001600182028038833980820191505090505b50905060208401517f0100000000000000000000000000000000000000000000000000000000000000810460278301537e01000000000000000000000000000000000000000000000000000000000000810460268301537d010000000000000000000000000000000000000000000000000000000000810460258301537c0100000000000000000000000000000000000000000000000000000000810460248301537b01000000000000000000000000000000000000000000000000000000810460238301537a010000000000000000000000000000000000000000000000000000810460228301537901000000000000000000000000000000000000000000000000008104602183015378010000000000000000000000000000000000000000000000008104602083015350611d7c828285600160048110611b9557fe5b6020020151600287600060048110611ba957fe5b60200201516040518082805190602001908083835b60208310611be15780518252602082019150602081019050602083039250611bbe565b6001836020036101000a038019825116818451168082178552505050505050905001915050602060405180830381855afa158015611c23573d6000803e3d6000fd5b5050506040513d6020811015611c3857600080fd5b810190808051906020019092919050505087600260048110611c5657fe5b60200201516040516020018085805190602001908083835b60208310611c915780518252602082019150602081019050602083039250611c6e565b6001836020036101000a03801982511681845116808217855250505050505090500184805190602001908083835b60208310611ce25780518252602082019150602081019050602083039250611cbf565b6001836020036101000a03801982511681845116808217855250505050505090500183815260200182805190602001908083835b60208310611d395780518252602082019150602081019050602083039250611d16565b6001836020036101000a03801982511681845116808217855250505050505090500194505050505060405160208183030381529060405280519060200120612be6565b8199505050505050505050509392505050565b606060038054600181600116156101000203166002900480601f016020809104026020016040519081016040528092919081815260200182805460018160011615610100020316600290048015611e275780601f10611dfc57610100808354040283529160200191611e27565b820191906000526020600020905b815481529060010190602001808311611e0a57829003601f168201915b5050505050905090565b6000806020600287604581518110611e4557fe5b602001015160f81c60f81b60f81c60ff1601604401019050606060206040519080825280601f01601f191660200182016040528015611e935781602001600182028038833980820191505090505b509050611ea587836020846000612818565b50600284876040516020018083805190602001908083835b60208310611ee05780518252602082019150602081019050602083039250611ebd565b6001836020036101000a038019825116818451168082178552505050505050905001828152602001925050506040516020818303038152906040526040518082805190602001908083835b60208310611f4e5780518252602082019150602081019050602083039250611f2b565b6001836020036101000a038019825116818451168082178552505050505050905001915050602060405180830381855afa158015611f90573d6000803e3d6000fd5b5050506040513d6020811015611fa557600080fd5b81019080805190602001909291905050506040516020018082815260200191505060405160208183030381529060405280519060200120818051906020012014611ff4576000925050506124d4565b6060600288600160498601018151811061200a57fe5b602001015160f81c60f81b60f81c60ff16016040519080825280601f01601f19166020018201604052801561204e5781602001600182028038833980820191505090505b50905061206388604985018351846000612818565b5061212e6002826040518082805190602001908083835b6020831061209d578051825260208201915060208101905060208303925061207a565b6001836020036101000a038019825116818451168082178552505050505050905001915050602060405180830381855afa1580156120df573d6000803e3d6000fd5b5050506040513d60208110156120f457600080fd5b8101908080519060200190929190505050878a600860208801018151811061211857fe5b602001015160f81c60f81b60f81c60ff16612c02565b61213e57600093505050506124d4565b606060296040519080825280601f01601f1916602001820160405280156121745781602001600182028038833980820191505090505b50905061218989602086016029846000612818565b506060604080519080825280601f01601f1916602001820160405280156121bf5781602001600182028038833980820191505090505b50905060006041845160296020890101010190506121e58b604083036040856000612818565b5060006002836040518082805190602001908083835b6020831061221e57805182526020820191506020810190506020830392506121fb565b6001836020036101000a038019825116818451168082178552505050505050905001915050602060405180830381855afa158015612260573d6000803e3d6000fd5b5050506040513d602081101561227557600080fd5b8101908080519060200190929190505050905083816040516020018083805190602001908083835b602083106122c0578051825260208201915060208101905060208303925061229d565b6001836020036101000a0380198251168184511680821785525050505050509050018281526020019250505060405160208183030381529060405280519060200120600460008d815260200190815260200160002054141561233857600460008c815260200190815260200160002060009055612348565b60009750505050505050506124d4565b606060496040519080825280601f01601f19166020018201604052801561237e5781602001600182028038833980820191505090505b5090506123908d896049846000612818565b506124396002826040518082805190602001908083835b602083106123ca57805182526020820191506020810190506020830392506123a7565b6001836020036101000a038019825116818451168082178552505050505050905001915050602060405180830381855afa15801561240c573d6000803e3d6000fd5b5050506040513d602081101561242157600080fd5b81019080805190602001909291905050508786612cb2565b61244e576000985050505050505050506124d4565b6005600083815260200190815260200160002060009054906101000a900460ff166124a85761247d8d84612e70565b6005600084815260200190815260200160002060006101000a81548160ff0219169083151502179055505b6005600083815260200190815260200160002060009054906101000a900460ff16985050505050505050505b949350505050565b6000813b9050919050565b60006124f1613288565b9050919050565b60008073ffffffffffffffffffffffffffffffffffffffff16600260009054906101000a900473ffffffffffffffffffffffffffffffffffffffff1673ffffffffffffffffffffffffffffffffffffffff1614806125805750600061257e600260009054906101000a900473ffffffffffffffffffffffffffffffffffffffff166124dc565b145b156125915761258f60006124e7565b505b600260009054906101000a900473ffffffffffffffffffffffffffffffffffffffff1673ffffffffffffffffffffffffffffffffffffffff166338cc48316040518163ffffffff1660e01b8152600401602060405180830381600087803b1580156125fb57600080fd5b505af115801561260f573d6000803e3d6000fd5b505050506040513d602081101561262557600080fd5b810190808051906020019092919050505073ffffffffffffffffffffffffffffffffffffffff16600160009054906101000a900473ffffffffffffffffffffffffffffffffffffffff1673ffffffffffffffffffffffffffffffffffffffff161461277057600260009054906101000a900473ffffffffffffffffffffffffffffffffffffffff1673ffffffffffffffffffffffffffffffffffffffff166338cc48316040518163ffffffff1660e01b8152600401602060405180830381600087803b1580156126f457600080fd5b505af1158015612708573d6000803e3d6000fd5b505050506040513d602081101561271e57600080fd5b8101908080519060200190929190505050600160006101000a81548173ffffffffffffffffffffffffffffffffffffffff021916908373ffffffffffffffffffffffffffffffffffffffff1602179055505b600160009054906101000a900473ffffffffffffffffffffffffffffffffffffffff1673ffffffffffffffffffffffffffffffffffffffff1663abaa5f3e6040518163ffffffff1660e01b815260040160206040518083038186803b1580156127d857600080fd5b505afa1580156127ec573d6000803e3d6000fd5b505050506040513d602081101561280257600080fd5b8101908080519060200190929190505050905090565b606060008285019050808451101561282f57600080fd5b600086602001905060008460200190505b8688602001018210156128685781890151808288015250602082019150602081019050612840565b85935050505095945050505050565b60008073ffffffffffffffffffffffffffffffffffffffff16600260009054906101000a900473ffffffffffffffffffffffffffffffffffffffff1673ffffffffffffffffffffffffffffffffffffffff1614806128ff575060006128fd600260009054906101000a900473ffffffffffffffffffffffffffffffffffffffff166124dc565b145b156129105761290e60006124e7565b505b600260009054906101000a900473ffffffffffffffffffffffffffffffffffffffff1673ffffffffffffffffffffffffffffffffffffffff166338cc48316040518163ffffffff1660e01b8152600401602060405180830381600087803b15801561297a57600080fd5b505af115801561298e573d6000803e3d6000fd5b505050506040513d60208110156129a457600080fd5b810190808051906020019092919050505073ffffffffffffffffffffffffffffffffffffffff16600160009054906101000a900473ffffffffffffffffffffffffffffffffffffffff1673ffffffffffffffffffffffffffffffffffffffff1614612aef57600260009054906101000a900473ffffffffffffffffffffffffffffffffffffffff1673ffffffffffffffffffffffffffffffffffffffff166338cc48316040518163ffffffff1660e01b8152600401602060405180830381600087803b158015612a7357600080fd5b505af1158015612a87573d6000803e3d6000fd5b505050506040513d6020811015612a9d57600080fd5b8101908080519060200190929190505050600160006101000a81548173ffffffffffffffffffffffffffffffffffffffff021916908373ffffffffffffffffffffffffffffffffffffffff1602179055505b60606004604051908082528060200260200182016040528015612b2657816020015b6060815260200190600190039081612b115790505b50905083600060048110612b3657fe5b602002015181600081518110612b4857fe5b602002602001018190525083600160048110612b6057fe5b602002015181600181518110612b7257fe5b602002602001018190525083600260048110612b8a57fe5b602002015181600281518110612b9c57fe5b602002602001018190525083600360048110612bb457fe5b602002015181600381518110612bc657fe5b6020026020010181905250612bdc8582856137df565b9150509392505050565b8060046000848152602001908152602001600020819055505050565b6000806001905082845114612c1657600080fd5b60008090505b83811015612ca657848181518110612c3057fe5b602001015160f81c60f81b7effffffffffffffffffffffffffffffffffffffffffffffffffffffffffffff1916868260208110612c6957fe5b1a60f81b7effffffffffffffffffffffffffffffffffffffffffffffffffffffffffffff191614612c9957600091505b8080600101915050612c1c565b50809150509392505050565b6000806000806000606060206040519080825280601f01601f191660200182016040528015612cf05781602001600182028038833980820191505090505b5090506000602089600381518110612d0457fe5b602001015160f81c60f81b60f81c60ff16036004019050612d2a89826020856000612818565b9150606060206040519080825280601f01601f191660200182016040528015612d625781602001600182028038833980820191505090505b509050602282019150612d9e8a60208c6001860381518110612d8057fe5b602001015160f81c60f81b60f81c60ff160384016020846000612818565b90506020830151945060208101519350612dbb8b601b8787613d45565b80975081985050508573ffffffffffffffffffffffffffffffffffffffff16898051906020012060001c73ffffffffffffffffffffffffffffffffffffffff161415612e11576001975050505050505050612e69565b612e1e8b601c8787613d45565b80975081985050508573ffffffffffffffffffffffffffffffffffffffff16898051906020012060001c73ffffffffffffffffffffffffffffffffffffffff16149750505050505050505b9392505050565b60008060606002856001860181518110612e8657fe5b602001015160f81c60f81b60f81c60ff16016040519080825280601f01601f191660200182016040528015612eca5781602001600182028038833980820191505090505b509050612edc85858351846000612818565b506060604080519080825280601f01601f191660200182016040528015612f125781602001600182028038833980820191505090505b509050612f258660046040846000612818565b50606060626040519080825280601f01601f191660200182016040528015612f5c5781602001600182028038833980820191505090505b509050600160f81b81600081518110612f7157fe5b60200101907effffffffffffffffffffffffffffffffffffffffffffffffffffffffffffff1916908160001a905350612fb287604188036041846001612818565b5060606040518060400160405280602081526020017ffd94fa71bc0ba10d39d464d0d8f465efeef0a2764e3887fcc9df41ded20f505c8152509050612ffd8160006020856042612818565b506130a66002836040518082805190602001908083835b602083106130375780518252602082019150602081019050602083039250613014565b6001836020036101000a038019825116818451168082178552505050505050905001915050602060405180830381855afa158015613079573d6000803e3d6000fd5b5050506040513d602081101561308e57600080fd5b81019080805190602001909291905050508585612cb2565b9450846130bb57600095505050505050613282565b60606040518060600160405280604081526020016142f8604091399050606060426040519080825280601f01601f19166020018201604052801561310e5781602001600182028038833980820191505090505b50905060fe60f81b8160008151811061312357fe5b60200101907effffffffffffffffffffffffffffffffffffffffffffffffffffffffffffff1916908160001a9053506131628a60036041846001612818565b50606060028b60458151811061317457fe5b602001015160f81c60f81b60f81c60ff16016040519080825280601f01601f1916602001820160405280156131b85781602001600182028038833980820191505090505b5090506131cb8b60448351846000612818565b506132746002836040518082805190602001908083835b6020831061320557805182526020820191506020810190506020830392506131e2565b6001836020036101000a038019825116818451168082178552505050505050905001915050602060405180830381855afa158015613247573d6000803e3d6000fd5b5050506040513d602081101561325c57600080fd5b81019080805190602001909291905050508285612cb2565b975087985050505050505050505b92915050565b6000806132a8731d3b2638a7cc9f2cb3d298a3da7a90b67e5506ed6124dc565b111561334a57731d3b2638a7cc9f2cb3d298a3da7a90b67e5506ed600260006101000a81548173ffffffffffffffffffffffffffffffffffffffff021916908373ffffffffffffffffffffffffffffffffffffffff1602179055506133416040518060400160405280600b81526020017f6574685f6d61696e6e6574000000000000000000000000000000000000000000815250613d89565b600190506137dc565b600061336973c03a2615d5efaf5f49f60b7bb6583eaec212fdf16124dc565b111561340b5773c03a2615d5efaf5f49f60b7bb6583eaec212fdf1600260006101000a81548173ffffffffffffffffffffffffffffffffffffffff021916908373ffffffffffffffffffffffffffffffffffffffff1602179055506134026040518060400160405280600c81526020017f6574685f726f707374656e330000000000000000000000000000000000000000815250613d89565b600190506137dc565b600061342a73b7a07bcf2ba2f2703b24c0691b5278999c59ac7e6124dc565b11156134cc5773b7a07bcf2ba2f2703b24c0691b5278999c59ac7e600260006101000a81548173ffffffffffffffffffffffffffffffffffffffff021916908373ffffffffffffffffffffffffffffffffffffffff1602179055506134c36040518060400160405280600981526020017f6574685f6b6f76616e0000000000000000000000000000000000000000000000815250613d89565b600190506137dc565b60006134eb73146500cfd35b22e4a392fe0adc06de1a1368ed486124dc565b111561358d5773146500cfd35b22e4a392fe0adc06de1a1368ed48600260006101000a81548173ffffffffffffffffffffffffffffffffffffffff021916908373ffffffffffffffffffffffffffffffffffffffff1602179055506135846040518060400160405280600b81526020017f6574685f72696e6b656279000000000000000000000000000000000000000000815250613d89565b600190506137dc565b60006135ac73a2998efd205fb9d4b4963afb70778d6354ad3a416124dc565b111561364e5773a2998efd205fb9d4b4963afb70778d6354ad3a41600260006101000a81548173ffffffffffffffffffffffffffffffffffffffff021916908373ffffffffffffffffffffffffffffffffffffffff1602179055506136456040518060400160405280600a81526020017f6574685f676f65726c6900000000000000000000000000000000000000000000815250613d89565b600190506137dc565b600061366d736f485c8bf6fc43ea212e93bbf8ce046c7f1cb4756124dc565b11156136d157736f485c8bf6fc43ea212e93bbf8ce046c7f1cb475600260006101000a81548173ffffffffffffffffffffffffffffffffffffffff021916908373ffffffffffffffffffffffffffffffffffffffff160217905550600190506137dc565b60006136f07320e12a1f859b3feae5fb2a0a32c18f5a65555bbf6124dc565b1115613754577320e12a1f859b3feae5fb2a0a32c18f5a65555bbf600260006101000a81548173ffffffffffffffffffffffffffffffffffffffff021916908373ffffffffffffffffffffffffffffffffffffffff160217905550600190506137dc565b60006137737351efaf4c8b3c9afbd5ab9f4bbc82784ab6ef8faa6124dc565b11156137d7577351efaf4c8b3c9afbd5ab9f4bbc82784ab6ef8faa600260006101000a81548173ffffffffffffffffffffffffffffffffffffffff021916908373ffffffffffffffffffffffffffffffffffffffff160217905550600190506137dc565b600090505b90565b60008073ffffffffffffffffffffffffffffffffffffffff16600260009054906101000a900473ffffffffffffffffffffffffffffffffffffffff1673ffffffffffffffffffffffffffffffffffffffff16148061386757506000613865600260009054906101000a900473ffffffffffffffffffffffffffffffffffffffff166124dc565b145b156138785761387660006124e7565b505b600260009054906101000a900473ffffffffffffffffffffffffffffffffffffffff1673ffffffffffffffffffffffffffffffffffffffff166338cc48316040518163ffffffff1660e01b8152600401602060405180830381600087803b1580156138e257600080fd5b505af11580156138f6573d6000803e3d6000fd5b505050506040513d602081101561390c57600080fd5b810190808051906020019092919050505073ffffffffffffffffffffffffffffffffffffffff16600160009054906101000a900473ffffffffffffffffffffffffffffffffffffffff1673ffffffffffffffffffffffffffffffffffffffff1614613a5757600260009054906101000a900473ffffffffffffffffffffffffffffffffffffffff1673ffffffffffffffffffffffffffffffffffffffff166338cc48316040518163ffffffff1660e01b8152600401602060405180830381600087803b1580156139db57600080fd5b505af11580156139ef573d6000803e3d6000fd5b505050506040513d6020811015613a0557600080fd5b8101908080519060200190929190505050600160006101000a81548173ffffffffffffffffffffffffffffffffffffffff021916908373ffffffffffffffffffffffffffffffffffffffff1602179055505b6000600160009054906101000a900473ffffffffffffffffffffffffffffffffffffffff1673ffffffffffffffffffffffffffffffffffffffff16632ef3accc86856040518363ffffffff1660e01b81526004018080602001838152602001828103825284818151815260200191508051906020019080838360005b83811015613aee578082015181840152602081019050613ad3565b50505050905090810190601f168015613b1b5780820380516001836020036101000a031916815260200191505b509350505050602060405180830381600087803b158015613b3b57600080fd5b505af1158015613b4f573d6000803e3d6000fd5b505050506040513d6020811015613b6557600080fd5b81019080805190602001909291905050509050823a02670de0b6b3a764000001811115613b98576000801b915050613d3e565b6060613ba385613da3565b9050600160009054906101000a900473ffffffffffffffffffffffffffffffffffffffff1673ffffffffffffffffffffffffffffffffffffffff1663c55c1cb68360008985896040518663ffffffff1660e01b8152600401808581526020018060200180602001848152602001838103835286818151815260200191508051906020019080838360005b83811015613c48578082015181840152602081019050613c2d565b50505050905090810190601f168015613c755780820380516001836020036101000a031916815260200191505b50838103825285818151815260200191508051906020019080838360005b83811015613cae578082015181840152602081019050613c93565b50505050905090810190601f168015613cdb5780820380516001836020036101000a031916815260200191505b5096505050505050506020604051808303818588803b158015613cfd57600080fd5b505af1158015613d11573d6000803e3d6000fd5b50505050506040513d6020811015613d2857600080fd5b8101908080519060200190929190505050925050505b9392505050565b60008060008060405188815287602082015286604082015285606082015260208160808360006001610bb8f192508051915050818193509350505094509492505050565b8060039080519060200190613d9f9291906141d3565b5050565b6060613dad613e23565b613db5614253565b613dc181610400613e2f565b613dca81613e79565b60008090505b8351811015613e0c57613dff848281518110613de857fe5b602002602001015183613e8790919063ffffffff16565b8080600101915050613dd0565b50613e1681613eac565b8060000151915050919050565b60405180590338823950565b6000819050600060208281613e4057fe5b0614613e595760208181613e5057fe5b06602003810190505b808360200181815250506040518084526000815281810160405250505050565b613e84816004613eba565b50565b613e948260028351613edb565b613ea7818361401b90919063ffffffff16565b505050565b613eb7816007613eba565b50565b613ed7601f60058360ff16901b17836140c690919063ffffffff16565b5050565b60178111613f0757613f028160058460ff16901b60ff1617846140c690919063ffffffff16565b614016565b60ff8111613f4857613f2c601860058460ff16901b17846140c690919063ffffffff16565b613f42816001856141069092919063ffffffff16565b50614015565b61ffff8111613f8a57613f6e601960058460ff16901b17846140c690919063ffffffff16565b613f84816002856141069092919063ffffffff16565b50614014565b63ffffffff8111613fce57613fb2601a60058460ff16901b17846140c690919063ffffffff16565b613fc8816004856141069092919063ffffffff16565b50614013565b67ffffffffffffffff811161401257613ffa601b60058460ff16901b17846140c690919063ffffffff16565b614010816008856141069092919063ffffffff16565b505b5b5b5b5b505050565b614023614253565b826020015183600001515183510111156140535761405283600261404c8660200151865161416d565b02614189565b5b60008060008451905085518051602081830101945086518101825260208701935050505b6020811061409a5781518352602083019250602082019150602081039050614077565b60006001826020036101000a039050801983511681855116818117865250508694505050505092915050565b816020015160018360000151510111156140ec576140eb826002846020015102614189565b5b815180516020818301018381536001820183525050505050565b61410e614253565b83602001518460000151518301111561413c5761413b84600261413587602001518661416d565b02614189565b5b60006001836101000a0390508451805184818301018684198251161781528582018352505050849150509392505050565b60008183111561417f57829050614183565b8190505b92915050565b60608260000151905061419c8383613e2f565b6141a6838261401b565b50505050565b60405180608001604052806004905b60608152602001906001900390816141bb5790505090565b828054600181600116156101000203166002900490600052602060002090601f016020900481019282601f1061421457805160ff1916838001178555614242565b82800160010185558215614242579182015b82811115614241578251825591602001919060010190614226565b5b50905061424f919061426d565b5090565b604051806040016040528060608152602001600081525090565b61428f91905b8082111561428b576000816000905550600101614273565b5090565b9056fe50726f7661626c65207175657279207761732073656e742c2077616974696e6720666f72207468652063616c6c6261636b436f6e74726163742062616c616e6365206e6565647320746f20626520332074696d657320796f75722062657420616d6f756e747fb956469c5c9b89840d55b43537e66a98dd4811ea0a27224272c2e5622911e8537a2f8e86a46baec82864e98dd01e9ccc2f8bc5dfc9cbe5a91a290498dd96e4596f75206172652063757272656e746c7920696e2067616d652c2063616e6e6f742073746172742061206e6577206f6e6520796574546869732066756e6374696f6e206973207265737472696374656420746f20746865206f776e6572a265627a7a72315820d6f8fd99a2c9bb0ff87ef479992fcfb2ba31643def42e9b2bc318bf2b62ff48c64736f6c634300050c0032",
  "source": "import \"./provableAPI.sol\";\nimport \"./Ownable.sol\";\nimport \"./Destroyable.sol\";\n\npragma solidity 0.5.12;\n\ncontract CoinFlip is Ownable, usingProvable, Destroyable {\n\n  uint256 constant NUM_RANDOM_BYTES_REQUESTED = 1;\n  uint private mainContractBalance;\n\n  event balanceUpdated (bool done);\n  event LogNewProvableQuery (string queryRequested);\n  event generatedRandomNumber(uint256 randomNumber);\n  event flipResult (string result);\n\n  constructor () public {\n    provable_setProof(proofType_Ledger);\n  }\n\n  modifier costs (){\n      require (msg.value >= 10000000000000000 wei ,\"Min bet is 0.1 Ether\");\n      _;\n  }\n\n  struct User {\n    bytes32 id;\n    address playerAddress;\n  }\n\n  struct UserByAdress {\n    address payable playerAddress;\n    uint customerBalance;\n    uint choice;\n    uint bet;\n    bool inGame;\n  }\n\n  mapping (bytes32 => User) public player;\n  mapping (address => UserByAdress) public playerByAddress;\n\n\n\n\n  function flip (uint decision) payable public  {\n     require (msg.value <= mainContractBalance*3, \"Contract balance needs to be 3 times your bet amount\");\n     require (playerByAddress[msg.sender].inGame == false, \"You are currently in game, cannot start a new one yet\");\n     playerByAddress[msg.sender].playerAddress = msg.sender;\n     playerByAddress[msg.sender].choice = decision;\n     playerByAddress[msg.sender].bet = msg.value;\n     playerByAddress[msg.sender].inGame = true;\n\n   update();\n  }\n\n  function update() payable public costs() {\n    // Call the oracle and populare the struct \"User\";\n    uint256 QUERY_EXECUTION_DELAY = 0;\n    uint256 GAS_FOR_CALLBACK =200000;\n    bytes32 query_id = provable_newRandomDSQuery(QUERY_EXECUTION_DELAY, NUM_RANDOM_BYTES_REQUESTED, GAS_FOR_CALLBACK);\n\n    player[query_id].id = query_id;\n    player[query_id].playerAddress = msg.sender;\n\n    emit LogNewProvableQuery (\"Provable query was sent, waiting for the callback\");\n  }\n\n\n  function __callback(bytes32 _queryId, string memory _result, bytes memory _proof) public {\n    if (\n      provable_randomDS_proofVerify__returnCode(\n                _queryId,\n                _result,\n                _proof\n            ) != 0\n        ) {\n        } else {\n\n    require (msg.sender == provable_cbAddress());\n    uint256 randomNumber = uint256(keccak256(abi.encodePacked(_result)))%2;\n\n    verifyResult (randomNumber, _queryId);\n    emit generatedRandomNumber (randomNumber);\n    }\n  }\n\n\n  function verifyResult (uint randomNumber, bytes32 _queryId) public {\n    if(randomNumber == playerByAddress[player[_queryId].playerAddress].choice){\n    playerByAddress[player[_queryId].playerAddress].customerBalance += playerByAddress[player[_queryId].playerAddress].bet;\n    mainContractBalance -= playerByAddress[player[_queryId].playerAddress].bet;\n    emit flipResult (\"won\");\n    } else {\n    mainContractBalance += playerByAddress[player[_queryId].playerAddress].bet;\n    emit flipResult (\"lost\");\n    }\n    playerByAddress[msg.sender].bet = 0;\n    playerByAddress[msg.sender].inGame = false;\n  }\n\n\n  function withdrawalAll () public onlyOwner {\n    msg.sender.transfer(getContractBalance());\n    assert(getContractBalance()==0);\n    killContract ();\n  }\n\n\n  function withdrawalCustomerFunds () public payable {\n     playerByAddress[msg.sender].playerAddress.transfer(playerByAddress[msg.sender].customerBalance*2);\n     playerByAddress[msg.sender].customerBalance = 0;\n     emit balanceUpdated (true);\n  }\n\n\n  function getCustomerBalance () public view returns (uint){\n    return playerByAddress[msg.sender].customerBalance;\n  }\n\n\n  function getContractBalance () public view returns (uint){\n    return address(this).balance;\n  }\n\n\n  function getMainContractBalance () public view returns (uint){\n    return mainContractBalance;\n  }\n\n\n  function setContractBalance () public payable{\n    mainContractBalance += msg.value;\n    emit balanceUpdated(true);\n  }\n\n\n}\n",
  "sourcePath": "/Users/dan/Documents/Coding/New Projects/CoinFlip Official/CoinFlip/contracts/CoinFlip.sol",
  "compiler": {
    "name": "solc",
    "version": "0.5.12+commit.7709ece9.Emscripten.clang"
  },
  "schemaVersion": "3.0.23",
  "updatedAt": "2020-02-21T13:25:03.326Z",
  "networkType": "ethereum",
  "devdoc": {
    "methods": {
      "__callback(bytes32,string)": {
        "details": "The following `__callback` functions are just placeholders ideally     meant to be defined in child contract when proofs are used.     The function bodies simply silence compiler warnings."
      }
    }
  },
  "userdoc": {
    "methods": {}
  }
}