{
  "contractName": "Destroyable",
  "abi": [
    {
      "constant": false,
      "inputs": [],
      "name": "killContract",
      "outputs": [],
      "payable": false,
      "stateMutability": "nonpayable",
      "type": "function"
    }
  ],
  "bytecode": "0x6080604052336000806101000a81548173ffffffffffffffffffffffffffffffffffffffff021916908373ffffffffffffffffffffffffffffffffffffffff160217905550610176806100536000396000f3fe608060405234801561001057600080fd5b506004361061002b5760003560e01c80631c02708d14610030575b600080fd5b61003861003a565b005b6000809054906101000a900473ffffffffffffffffffffffffffffffffffffffff1673ffffffffffffffffffffffffffffffffffffffff163373ffffffffffffffffffffffffffffffffffffffff16146100df576040517f08c379a000000000000000000000000000000000000000000000000000000000815260040180806020018281038252602881526020018061011a6028913960400191505060405180910390fd5b6000809054906101000a900473ffffffffffffffffffffffffffffffffffffffff1673ffffffffffffffffffffffffffffffffffffffff16fffe546869732066756e6374696f6e206973207265737472696374656420746f20746865206f776e6572a265627a7a72315820336c05c41242f67e0e59babc1ba39b67eec1a7dd3547f4dd137112e6706dff3c64736f6c634300050c0032",
  "source": "import \"./Ownable.sol\";\npragma solidity 0.5.12;\n\ncontract Destroyable is Ownable{\n\n    function killContract () public onlyOwner{\n        selfdestruct (owner);\n    }\n\n\n}\n",
  "sourcePath": "/Users/dan/Documents/Coding/New Projects/CoinFlip Official/CoinFlip/contracts/Destroyable.sol",
  "compiler": {
    "name": "solc",
    "version": "0.5.12+commit.7709ece9.Emscripten.clang"
  },
  "schemaVersion": "3.0.23",
  "updatedAt": "2020-02-15T14:39:54.887Z",
  "devdoc": {
    "methods": {}
  },
  "userdoc": {
    "methods": {}
  }
}