{
  "contractName": "TestContract",
  "abi": [
    {
      "constant": true,
      "inputs": [],
      "name": "sum",
      "outputs": [],
      "payable": false,
      "stateMutability": "view",
      "type": "function"
    }
  ],
  "bytecode": "0x60806040526005600055600a600155348015601957600080fd5b506078806100286000396000f3fe6080604052348015600f57600080fd5b506004361060285760003560e01c8063853255cc14602d575b600080fd5b60336035565b005b60006001546000540190505056fea265627a7a72315820b1043fb4127db050d23989cb351e4a5232f02cc882c83ef9bb4b621565005afa64736f6c634300050c0032",
  "source": "import \"./provableAPI.sol\";\npragma solidity 0.5.12;\n\ncontract TestContract {\n  uint a = 5;\n  uint b = 10;\n\n  function sum() public view {\n    uint total = a+b;\n  }\n}\n",
  "sourcePath": "/Users/dan/Documents/Coding/New Projects/1_Test_Project/contracts/1_Test.sol",
  "compiler": {
    "name": "solc",
    "version": "0.5.12+commit.7709ece9.Emscripten.clang"
  },
  "schemaVersion": "3.0.23",
  "updatedAt": "2020-02-09T17:45:27.091Z",
  "networkType": "ethereum",
  "devdoc": {
    "methods": {}
  },
  "userdoc": {
    "methods": {}
  }
}